{
  "contractName": "Task",
  "abi": [
    {
      "constant": true,
      "inputs": [
        {
          "name": "",
          "type": "uint256"
        }
      ],
      "name": "tasksAccts",
      "outputs": [
        {
          "name": "",
          "type": "string"
        }
      ],
      "payable": false,
      "stateMutability": "view",
      "type": "function"
    },
    {
      "constant": false,
      "inputs": [
        {
          "name": "_taskId",
          "type": "string"
        },
        {
          "name": "_tenantId",
          "type": "string"
        },
        {
          "name": "_dt",
          "type": "uint256"
        }
      ],
      "name": "addingTenantToTask",
      "outputs": [],
      "payable": false,
      "stateMutability": "nonpayable",
      "type": "function"
    },
    {
      "constant": false,
      "inputs": [
        {
          "name": "_taskId",
          "type": "string"
        }
      ],
      "name": "tenantMarkedAsDone",
      "outputs": [],
      "payable": false,
      "stateMutability": "nonpayable",
      "type": "function"
    },
    {
      "constant": false,
      "inputs": [
        {
          "name": "taskId",
          "type": "string"
        },
        {
          "name": "rate",
          "type": "uint256"
        }
      ],
      "name": "evaluationRate",
      "outputs": [],
      "payable": false,
      "stateMutability": "nonpayable",
      "type": "function"
    },
    {
      "constant": false,
      "inputs": [
        {
          "name": "taskId",
          "type": "string"
        }
      ],
      "name": "evaluationDateEvaluation",
      "outputs": [],
      "payable": false,
      "stateMutability": "nonpayable",
      "type": "function"
    },
    {
      "constant": false,
      "inputs": [
        {
          "name": "taskId",
          "type": "string"
        },
        {
          "name": "raterId",
          "type": "string"
        }
      ],
      "name": "evaluationRaterId",
      "outputs": [],
      "payable": false,
      "stateMutability": "nonpayable",
      "type": "function"
    },
    {
      "constant": true,
      "inputs": [
        {
          "name": "tk",
          "type": "string"
        }
      ],
      "name": "getDiscount",
      "outputs": [
        {
          "name": "",
          "type": "uint256"
        }
      ],
      "payable": false,
      "stateMutability": "view",
      "type": "function"
    },
    {
      "constant": true,
      "inputs": [
        {
          "name": "taskId",
          "type": "string"
        }
      ],
      "name": "getRate",
      "outputs": [
        {
          "name": "",
          "type": "uint256[]"
        }
      ],
      "payable": false,
      "stateMutability": "view",
      "type": "function"
    }
  ],
  "bytecode": "0x608060405234801561001057600080fd5b50610b77806100206000396000f30060806040526004361061008e576000357c0100000000000000000000000000000000000000000000000000000000900463ffffffff1680631e9573021461009357806348fd73de146100fc5780634f54dc85146101a25780636c0daed81461025b578063a3c4a69514610319578063d9008f8a14610396578063e5091da114610409578063fe1fc40e146104b8575b600080fd5b34801561009f57600080fd5b506100fa600480360381019080803590602001908201803590602001908080601f0160208091040260200160405190810160405280939291908181526020018383808284378201915050505050509192919290505050610521565b005b34801561010857600080fd5b50610127600480360381019080803590602001909291905050506105c1565b6040518080602001828103825283818151815260200191508051906020019080838360005b8381101561016757808201518184015260208101905061014c565b50505050905090810190601f1680156101945780820380516001836020036101000a031916815260200191505b509250505060405180910390f35b3480156101ae57600080fd5b50610259600480360381019080803590602001908201803590602001908080601f0160208091040260200160405190810160405280939291908181526020018383808284378201915050505050509192919290803590602001908201803590602001908080601f01602080910402602001604051908101604052809392919081815260200183838082843782019150505050505091929192908035906020019092919050505061067c565b005b34801561026757600080fd5b506102c2600480360381019080803590602001908201803590602001908080601f0160208091040260200160405190810160405280939291908181526020018383808284378201915050505050509192919290505050610753565b6040518080602001828103825283818151815260200191508051906020019060200280838360005b838110156103055780820151818401526020810190506102ea565b505050509050019250505060405180910390f35b34801561032557600080fd5b50610380600480360381019080803590602001908201803590602001908080601f016020809104026020016040519081016040528093929190818152602001838380828437820191505050505050919291929050505061081e565b6040518082815260200191505060405180910390f35b3480156103a257600080fd5b50610407600480360381019080803590602001908201803590602001908080601f016020809104026020016040519081016040528093929190818152602001838380828437820191505050505050919291929080359060200190929190505050610895565b005b34801561041557600080fd5b506104b6600480360381019080803590602001908201803590602001908080601f0160208091040260200160405190810160405280939291908181526020018383808284378201915050505050509192919290803590602001908201803590602001908080601f0160208091040260200160405190810160405280939291908181526020018383808284378201915050505050509192919290505050610936565b005b3480156104c457600080fd5b5061051f600480360381019080803590602001908201803590602001908080601f01602080910402602001604051908101604052809392919081815260200183838082843782019150505050505091929192905050506109ea565b005b600080826040518082805190602001908083835b60208310151561055a5780518252602082019150602081019050602083039250610535565b6001836020036101000a03801982511681845116808217855250505050505090500191505090815260200160405180910390209050806005014290806001815401808255809150509060018203906000526020600020016000909192909190915055505050565b6001818154811015156105d057fe5b906000526020600020016000915090508054600181600116156101000203166002900480601f0160208091040260200160405190810160405280929190818152602001828054600181600116156101000203166002900480156106745780601f1061064957610100808354040283529160200191610674565b820191906000526020600020905b81548152906001019060200180831161065757829003601f168201915b505050505081565b600080846040518082805190602001908083835b6020831015156106b55780518252602082019150602081019050602083039250610690565b6001836020036101000a0380198251168184511680821785525050505050509050019150509081526020016040518091039020905082816002019080519060200190610702929190610aa6565b5081816000018190555060018085908060018154018082558091505090600182039060005260206000200160009091929091909150908051906020019061074a929190610aa6565b50505050505050565b6060600080836040518082805190602001908083835b60208310151561078e5780518252602082019150602081019050602083039250610769565b6001836020036101000a038019825116818451168082178552505050505050905001915050908152602001604051809103902090508060030180548060200260200160405190810160405280929190818152602001828054801561081157602002820191906000526020600020905b8154815260200190600101908083116107fd575b5050505050915050919050565b600080826040518082805190602001908083835b6020831015156108575780518252602082019150602081019050602083039250610832565b6001836020036101000a0380198251168184511680821785525050505050509050019150509081526020016040518091039020600001549050919050565b600080836040518082805190602001908083835b6020831015156108ce57805182526020820191506020810190506020830392506108a9565b6001836020036101000a0380198251168184511680821785525050505050509050019150509081526020016040518091039020905080600301829080600181540180825580915050906001820390600052602060002001600090919290919091505550505050565b600080836040518082805190602001908083835b60208310151561096f578051825260208201915060208101905060208303925061094a565b6001836020036101000a03801982511681845116808217855250505050505090500191505090815260200160405180910390209050806004018290806001815401808255809150509060018203906000526020600020016000909192909190915090805190602001906109e3929190610aa6565b5050505050565b600080826040518082805190602001908083835b602083101515610a2357805182526020820191506020810190506020830392506109fe565b6001836020036101000a03801982511681845116808217855250505050505090500191505090815260200160405180910390209050428160010181905550600180839080600181540180825580915050906001820390600052602060002001600090919290919091509080519060200190610a9f929190610aa6565b5050505050565b828054600181600116156101000203166002900490600052602060002090601f016020900481019282601f10610ae757805160ff1916838001178555610b15565b82800160010185558215610b15579182015b82811115610b14578251825591602001919060010190610af9565b5b509050610b229190610b26565b5090565b610b4891905b80821115610b44576000816000905550600101610b2c565b5090565b905600a165627a7a72305820a5ec15a0b54e2878f90ab6cffa277a25dfa17d7ebf09c1d144d3bf37bc81819f0029",
  "source": "pragma solidity ^0.4.18;\r\n\r\ncontract Task {\r\n    struct Stats {\r\n        uint discount;\r\n        uint256 dateTaskDone;\r\n        string tenant_id;\r\n        uint[] rates;\r\n        string[] rater_ids;\r\n        uint256[] dateEvaluation;\r\n    }\r\n\r\n    mapping (string => Stats) allStats;\r\n    string[] public tasksAccts;\r\n\r\n    function addingTenantToTask(string memory _taskId, string memory _tenantId, uint _dt) public {\r\n        var tk = allStats[_taskId];\r\n\r\n        tk.tenant_id = _tenantId;\r\n        tk.discount = _dt;\r\n\r\n        tasksAccts.push(_taskId) -1;\r\n    }\r\n\r\n    function tenantMarkedAsDone(string memory _taskId) public{\r\n        var tk = allStats[_taskId];\r\n        tk.dateTaskDone = block.timestamp;\r\n        tasksAccts.push(_taskId)-1;\r\n    }\r\n\r\n    function evaluationRate(string memory taskId, uint rate) public{\r\n        var task = allStats[taskId];\r\n        task.rates.push(rate);\r\n    }\r\n\r\n    function evaluationDateEvaluation(string memory taskId) public{\r\n        var task = allStats[taskId];\r\n        task.dateEvaluation.push(block.timestamp);\r\n    }\r\n\r\n    function evaluationRaterId(string memory taskId, string memory raterId) public{\r\n        var task = allStats[taskId];\r\n        task.rater_ids.push(raterId);\r\n    }\r\n\r\n    function getDiscount(string memory tk) view public returns (uint) {\r\n        return allStats[tk].discount;\r\n    }\r\n\r\n    function getRate(string memory taskId) public view returns (uint[]){\r\n        var tk = allStats[taskId];\r\n        return tk.rates;\r\n    }\r\n\r\n}",
  "sourcePath": "D:\\project_test\\contracts\\Task.sol",
  "compiler": {
    "name": "solc",
    "version": "0.4.26+commit.4563c3fc.Emscripten.clang"
  },
  "schemaVersion": "3.4.4",
  "updatedAt": "2022-01-26T11:33:22.114Z",
  "networkType": "ethereum",
  "devdoc": {
    "methods": {}
  },
  "userdoc": {
    "methods": {}
  }
}