{
  "contractName": "Task",
  "abi": [
    {
      "inputs": [],
      "payable": false,
      "stateMutability": "nonpayable",
      "type": "constructor"
    },
    {
      "constant": true,
      "inputs": [],
      "name": "dateEvaluation",
      "outputs": [
        {
          "internalType": "uint256",
          "name": "",
          "type": "uint256"
        }
      ],
      "payable": false,
      "stateMutability": "view",
      "type": "function"
    },
    {
      "constant": true,
      "inputs": [],
      "name": "dateTaskDone",
      "outputs": [
        {
          "internalType": "uint256",
          "name": "",
          "type": "uint256"
        }
      ],
      "payable": false,
      "stateMutability": "view",
      "type": "function"
    },
    {
      "constant": true,
      "inputs": [],
      "name": "discount",
      "outputs": [
        {
          "internalType": "int256",
          "name": "",
          "type": "int256"
        }
      ],
      "payable": false,
      "stateMutability": "view",
      "type": "function"
    },
    {
      "constant": true,
      "inputs": [],
      "name": "rate",
      "outputs": [
        {
          "internalType": "int256",
          "name": "",
          "type": "int256"
        }
      ],
      "payable": false,
      "stateMutability": "view",
      "type": "function"
    },
    {
      "constant": true,
      "inputs": [],
      "name": "rater_id",
      "outputs": [
        {
          "internalType": "int256",
          "name": "",
          "type": "int256"
        }
      ],
      "payable": false,
      "stateMutability": "view",
      "type": "function"
    },
    {
      "constant": true,
      "inputs": [],
      "name": "task_id",
      "outputs": [
        {
          "internalType": "uint256",
          "name": "",
          "type": "uint256"
        }
      ],
      "payable": false,
      "stateMutability": "view",
      "type": "function"
    },
    {
      "constant": true,
      "inputs": [],
      "name": "tenant_id",
      "outputs": [
        {
          "internalType": "int256",
          "name": "",
          "type": "int256"
        }
      ],
      "payable": false,
      "stateMutability": "view",
      "type": "function"
    },
    {
      "constant": false,
      "inputs": [
        {
          "internalType": "int256",
          "name": "rt",
          "type": "int256"
        }
      ],
      "name": "setRate",
      "outputs": [],
      "payable": false,
      "stateMutability": "nonpayable",
      "type": "function"
    },
    {
      "constant": false,
      "inputs": [
        {
          "internalType": "int256",
          "name": "id",
          "type": "int256"
        }
      ],
      "name": "setRaterId",
      "outputs": [],
      "payable": false,
      "stateMutability": "nonpayable",
      "type": "function"
    },
    {
      "constant": false,
      "inputs": [],
      "name": "setDateTaskDone",
      "outputs": [],
      "payable": false,
      "stateMutability": "nonpayable",
      "type": "function"
    },
    {
      "constant": false,
      "inputs": [
        {
          "internalType": "uint256",
          "name": "id",
          "type": "uint256"
        }
      ],
      "name": "setTaskId",
      "outputs": [],
      "payable": false,
      "stateMutability": "nonpayable",
      "type": "function"
    },
    {
      "constant": false,
      "inputs": [
        {
          "internalType": "int256",
          "name": "id",
          "type": "int256"
        }
      ],
      "name": "setTenantId",
      "outputs": [],
      "payable": false,
      "stateMutability": "nonpayable",
      "type": "function"
    },
    {
      "constant": false,
      "inputs": [
        {
          "internalType": "int256",
          "name": "dt",
          "type": "int256"
        }
      ],
      "name": "setDiscount",
      "outputs": [],
      "payable": false,
      "stateMutability": "nonpayable",
      "type": "function"
    }
  ],
  "bytecode": "0x608060405234801561001057600080fd5b50600080819055506001808190555060006002819055507fffffffffffffffffffffffffffffffffffffffffffffffffffffffffffffffff6003819055507fffffffffffffffffffffffffffffffffffffffffffffffffffffffffffffffff600481905550610354806100846000396000f3fe608060405234801561001057600080fd5b50600436106100ec576000357c0100000000000000000000000000000000000000000000000000000000900480638e8ec377116100a9578063ce25d0c211610083578063ce25d0c21461021b578063d674161514610239578063ebb54e2614610257578063fdd62b5614610285576100ec565b80638e8ec377146101c5578063a13bcdd1146101cf578063bc9b5162146101ed576100ec565b80632165efd2146100f1578063253702861461010f5780632587eb4e1461013d5780632c4e722e1461016b5780636b6f4a9d1461018957806381341f2a146101a7575b600080fd5b6100f96102b3565b6040518082815260200191505060405180910390f35b61013b6004803603602081101561012557600080fd5b81019080803590602001909291905050506102b9565b005b6101696004803603602081101561015357600080fd5b81019080803590602001909291905050506102c3565b005b6101736102d4565b6040518082815260200191505060405180910390f35b6101916102da565b6040518082815260200191505060405180910390f35b6101af6102e0565b6040518082815260200191505060405180910390f35b6101cd6102e6565b005b6101d76102ef565b6040518082815260200191505060405180910390f35b6102196004803603602081101561020357600080fd5b81019080803590602001909291905050506102f5565b005b6102236102ff565b6040518082815260200191505060405180910390f35b610241610305565b6040518082815260200191505060405180910390f35b6102836004803603602081101561026d57600080fd5b810190808035906020019092919050505061030b565b005b6102b16004803603602081101561029b57600080fd5b8101908080359060200190929190505050610315565b005b60005481565b8060038190555050565b806002819055504260058190555050565b60025481565b60045481565b60055481565b42600681905550565b60065481565b8060008190555050565b60035481565b60015481565b8060018190555050565b806004819055505056fea265627a7a7231582088878d0e5ae63f29fbd0f84a24e4ff13be1aed03c6d503eb240fcdd5e1dd487264736f6c63430005100032",
  "source": "pragma solidity ^0.5.9;\r\n\r\ncontract Task{\r\n    uint public task_id;\r\n    int public tenant_id;\r\n    int public rate;\r\n    int public rater_id;\r\n    int public discount;\r\n    uint public dateEvaluation;\r\n    uint public dateTaskDone;\r\n\r\n\r\n    constructor() public{\r\n        task_id = 0;\r\n        tenant_id = 1;\r\n        rate = 0;\r\n        rater_id = -1;\r\n        discount = -1;\r\n    }\r\n\r\n\r\n    function setRate(int rt) public {\r\n        rate = rt;\r\n        dateEvaluation = block.timestamp;\r\n    }\r\n\r\n    function setRaterId(int id) public  {\r\n        rater_id = id;\r\n    }\r\n\r\n    function setDateTaskDone() public  {\r\n        dateTaskDone = block.timestamp;\r\n    }\r\n\r\n    function setTaskId(uint id) public  {\r\n        task_id = id;\r\n    }\r\n\r\n    function setTenantId(int id) public  {\r\n        tenant_id = id;\r\n    }\r\n\r\n    function setDiscount(int dt) public  {\r\n        discount = dt;\r\n    }\r\n}",
  "sourcePath": "D:\\project\\contracts\\Task.sol",
  "compiler": {
    "name": "solc",
    "version": "0.5.16+commit.9c3226ce.Emscripten.clang"
  },
  "schemaVersion": "3.4.4",
  "updatedAt": "2022-01-20T20:05:54.708Z",
  "devdoc": {
    "methods": {}
  },
  "userdoc": {
    "methods": {}
  }
}